:020000000329D2
:0E000600213083120313FD00FD0B07280800B4
:100014000F3083120313FC004730FD00FD0B102842
:0A002400FC0B10280000000008008B
:06002E00000000000800C4
:1000340083120313C61B2028871321288717461B06
:100044002528071326280717C61A2A2887122B28BB
:100054008716461A2F280712302807163E18342808
:10006400071535280711871517208711C6193C284D
:1000740087133D2887174619412807134228071775
:10008400C618462887124728871646184B28071291
:100094004C2807163E1850280715512807118715B4
:1000A400172087113E1C58280A20592803200800CD
:0E00B4008312031340088A003F0882000800F0
:1000C200831203133E104508C6001A203E1408008E
:1000D2008316031387110711071287120713871359
:1000E20083128711071187130713871207120A2039
:1000F2000A200A20871607168715172087110A205B
:100102008715172087110A208715172087110A20C3
:1001120007128715172087110A20871517208711C4
:10012200871287178715172087110A20871307164A
:1001320087151720871107128715172087110A20A4
:1001420087151720871107168715172087110A2090
:1001520007128715172087118717071787160716A3
:0C0162008715172087110A203E140800A2
:10016E00C928803083120313C100DC28C030C100BF
:10017E00DC289430C100DC28D430C100DC2880306B
:10018E00C100DC28831203134108013A0319B82871
:10019E004108023A0319BD284108033A0319C02841
:1001AE004108043A0319C328C6284203F000410847
:1001BE00F0077008C1007008C6001A203E10C40176
:1001CE0044084307840000080319F5284408430730
:1001DE0084000008C5006120C40AE7283E14080008
:1001EE005A208A110A128000840ABF0A0319C00A13
:0801FE00F003031DF7280800BF
:10020600473083120313A0006130A1007330A200AF
:100216002030A3004430A4006530A5007430A60049
:100226006530A7006330A8007430A9006530AA00C5
:100236006430AB00AC014E30AD006F30AE00203004
:10024600AF004730B0006130B1007330B2002030EB
:10025600B3002030B4002030B5002030B600203086
:10026600B7002030B8002030B9002030BA00203066
:10027600BB002030BC00BD0169200130C6001A2039
:100286000C30C6001A208316081488108312081C26
:1002960055290130C1000130C2002030C300B7200B
:1002A60088145D290130C1000130C2002D30C30021
:0802B600B720881049295E29D8
:02400E004A2F37
:00000001FF
